{
  "_format": "hh-sol-artifact-1",
  "contractName": "LearnDAOGovernor",
  "sourceName": "contracts/LearnGovernor.sol",
  "abi": [
    {
      "inputs": [
        {
          "internalType": "contract ERC20Votes",
          "name": "_token",
          "type": "address"
        },
        {
          "internalType": "string",
          "name": "_name",
          "type": "string"
        }
      ],
      "stateMutability": "nonpayable",
      "type": "constructor"
    },
    {
      "anonymous": false,
      "inputs": [
        {
          "indexed": false,
          "internalType": "uint256",
          "name": "proposalId",
          "type": "uint256"
        }
      ],
      "name": "ProposalCanceled",
      "type": "event"
    },
    {
      "anonymous": false,
      "inputs": [
        {
          "indexed": false,
          "internalType": "uint256",
          "name": "proposalId",
          "type": "uint256"
        },
        {
          "indexed": false,
          "internalType": "address",
          "name": "proposer",
          "type": "address"
        },
        {
          "indexed": false,
          "internalType": "address[]",
          "name": "targets",
          "type": "address[]"
        },
        {
          "indexed": false,
          "internalType": "uint256[]",
          "name": "values",
          "type": "uint256[]"
        },
        {
          "indexed": false,
          "internalType": "string[]",
          "name": "signatures",
          "type": "string[]"
        },
        {
          "indexed": false,
          "internalType": "bytes[]",
          "name": "calldatas",
          "type": "bytes[]"
        },
        {
          "indexed": false,
          "internalType": "uint256",
          "name": "startBlock",
          "type": "uint256"
        },
        {
          "indexed": false,
          "internalType": "uint256",
          "name": "endBlock",
          "type": "uint256"
        },
        {
          "indexed": false,
          "internalType": "string",
          "name": "description",
          "type": "string"
        }
      ],
      "name": "ProposalCreated",
      "type": "event"
    },
    {
      "anonymous": false,
      "inputs": [
        {
          "indexed": false,
          "internalType": "uint256",
          "name": "proposalId",
          "type": "uint256"
        }
      ],
      "name": "ProposalExecuted",
      "type": "event"
    },
    {
      "anonymous": false,
      "inputs": [
        {
          "indexed": false,
          "internalType": "uint256",
          "name": "oldProposalThreshold",
          "type": "uint256"
        },
        {
          "indexed": false,
          "internalType": "uint256",
          "name": "newProposalThreshold",
          "type": "uint256"
        }
      ],
      "name": "ProposalThresholdSet",
      "type": "event"
    },
    {
      "anonymous": false,
      "inputs": [
        {
          "indexed": false,
          "internalType": "uint256",
          "name": "oldQuorumNumerator",
          "type": "uint256"
        },
        {
          "indexed": false,
          "internalType": "uint256",
          "name": "newQuorumNumerator",
          "type": "uint256"
        }
      ],
      "name": "QuorumNumeratorUpdated",
      "type": "event"
    },
    {
      "anonymous": false,
      "inputs": [
        {
          "indexed": true,
          "internalType": "address",
          "name": "voter",
          "type": "address"
        },
        {
          "indexed": false,
          "internalType": "uint256",
          "name": "proposalId",
          "type": "uint256"
        },
        {
          "indexed": false,
          "internalType": "uint8",
          "name": "support",
          "type": "uint8"
        },
        {
          "indexed": false,
          "internalType": "uint256",
          "name": "weight",
          "type": "uint256"
        },
        {
          "indexed": false,
          "internalType": "string",
          "name": "reason",
          "type": "string"
        }
      ],
      "name": "VoteCast",
      "type": "event"
    },
    {
      "anonymous": false,
      "inputs": [
        {
          "indexed": false,
          "internalType": "uint256",
          "name": "oldVotingDelay",
          "type": "uint256"
        },
        {
          "indexed": false,
          "internalType": "uint256",
          "name": "newVotingDelay",
          "type": "uint256"
        }
      ],
      "name": "VotingDelaySet",
      "type": "event"
    },
    {
      "anonymous": false,
      "inputs": [
        {
          "indexed": false,
          "internalType": "uint256",
          "name": "oldVotingPeriod",
          "type": "uint256"
        },
        {
          "indexed": false,
          "internalType": "uint256",
          "name": "newVotingPeriod",
          "type": "uint256"
        }
      ],
      "name": "VotingPeriodSet",
      "type": "event"
    },
    {
      "inputs": [],
      "name": "BALLOT_TYPEHASH",
      "outputs": [
        {
          "internalType": "bytes32",
          "name": "",
          "type": "bytes32"
        }
      ],
      "stateMutability": "view",
      "type": "function"
    },
    {
      "inputs": [],
      "name": "COUNTING_MODE",
      "outputs": [
        {
          "internalType": "string",
          "name": "",
          "type": "string"
        }
      ],
      "stateMutability": "pure",
      "type": "function"
    },
    {
      "inputs": [
        {
          "internalType": "uint256",
          "name": "_amount",
          "type": "uint256"
        }
      ],
      "name": "addMember",
      "outputs": [],
      "stateMutability": "nonpayable",
      "type": "function"
    },
    {
      "inputs": [
        {
          "internalType": "uint256",
          "name": "proposalId",
          "type": "uint256"
        },
        {
          "internalType": "uint8",
          "name": "support",
          "type": "uint8"
        }
      ],
      "name": "castVote",
      "outputs": [
        {
          "internalType": "uint256",
          "name": "",
          "type": "uint256"
        }
      ],
      "stateMutability": "nonpayable",
      "type": "function"
    },
    {
      "inputs": [
        {
          "internalType": "uint256",
          "name": "proposalId",
          "type": "uint256"
        },
        {
          "internalType": "uint8",
          "name": "support",
          "type": "uint8"
        },
        {
          "internalType": "uint8",
          "name": "v",
          "type": "uint8"
        },
        {
          "internalType": "bytes32",
          "name": "r",
          "type": "bytes32"
        },
        {
          "internalType": "bytes32",
          "name": "s",
          "type": "bytes32"
        }
      ],
      "name": "castVoteBySig",
      "outputs": [
        {
          "internalType": "uint256",
          "name": "",
          "type": "uint256"
        }
      ],
      "stateMutability": "nonpayable",
      "type": "function"
    },
    {
      "inputs": [
        {
          "internalType": "uint256",
          "name": "proposalId",
          "type": "uint256"
        },
        {
          "internalType": "uint8",
          "name": "support",
          "type": "uint8"
        },
        {
          "internalType": "string",
          "name": "reason",
          "type": "string"
        }
      ],
      "name": "castVoteWithReason",
      "outputs": [
        {
          "internalType": "uint256",
          "name": "",
          "type": "uint256"
        }
      ],
      "stateMutability": "nonpayable",
      "type": "function"
    },
    {
      "inputs": [
        {
          "internalType": "address[]",
          "name": "targets",
          "type": "address[]"
        },
        {
          "internalType": "uint256[]",
          "name": "values",
          "type": "uint256[]"
        },
        {
          "internalType": "bytes[]",
          "name": "calldatas",
          "type": "bytes[]"
        },
        {
          "internalType": "bytes32",
          "name": "descriptionHash",
          "type": "bytes32"
        }
      ],
      "name": "execute",
      "outputs": [
        {
          "internalType": "uint256",
          "name": "",
          "type": "uint256"
        }
      ],
      "stateMutability": "payable",
      "type": "function"
    },
    {
      "inputs": [
        {
          "internalType": "address",
          "name": "account",
          "type": "address"
        },
        {
          "internalType": "uint256",
          "name": "blockNumber",
          "type": "uint256"
        }
      ],
      "name": "getVotes",
      "outputs": [
        {
          "internalType": "uint256",
          "name": "",
          "type": "uint256"
        }
      ],
      "stateMutability": "view",
      "type": "function"
    },
    {
      "inputs": [
        {
          "internalType": "uint256",
          "name": "proposalId",
          "type": "uint256"
        },
        {
          "internalType": "address",
          "name": "account",
          "type": "address"
        }
      ],
      "name": "hasVoted",
      "outputs": [
        {
          "internalType": "bool",
          "name": "",
          "type": "bool"
        }
      ],
      "stateMutability": "view",
      "type": "function"
    },
    {
      "inputs": [
        {
          "internalType": "address[]",
          "name": "targets",
          "type": "address[]"
        },
        {
          "internalType": "uint256[]",
          "name": "values",
          "type": "uint256[]"
        },
        {
          "internalType": "bytes[]",
          "name": "calldatas",
          "type": "bytes[]"
        },
        {
          "internalType": "bytes32",
          "name": "descriptionHash",
          "type": "bytes32"
        }
      ],
      "name": "hashProposal",
      "outputs": [
        {
          "internalType": "uint256",
          "name": "",
          "type": "uint256"
        }
      ],
      "stateMutability": "pure",
      "type": "function"
    },
    {
      "inputs": [],
      "name": "name",
      "outputs": [
        {
          "internalType": "string",
          "name": "",
          "type": "string"
        }
      ],
      "stateMutability": "view",
      "type": "function"
    },
    {
      "inputs": [
        {
          "internalType": "uint256",
          "name": "proposalId",
          "type": "uint256"
        }
      ],
      "name": "proposalDeadline",
      "outputs": [
        {
          "internalType": "uint256",
          "name": "",
          "type": "uint256"
        }
      ],
      "stateMutability": "view",
      "type": "function"
    },
    {
      "inputs": [
        {
          "internalType": "uint256",
          "name": "proposalId",
          "type": "uint256"
        }
      ],
      "name": "proposalSnapshot",
      "outputs": [
        {
          "internalType": "uint256",
          "name": "",
          "type": "uint256"
        }
      ],
      "stateMutability": "view",
      "type": "function"
    },
    {
      "inputs": [],
      "name": "proposalThreshold",
      "outputs": [
        {
          "internalType": "uint256",
          "name": "",
          "type": "uint256"
        }
      ],
      "stateMutability": "view",
      "type": "function"
    },
    {
      "inputs": [
        {
          "internalType": "uint256",
          "name": "proposalId",
          "type": "uint256"
        }
      ],
      "name": "proposalVotes",
      "outputs": [
        {
          "internalType": "uint256",
          "name": "againstVotes",
          "type": "uint256"
        },
        {
          "internalType": "uint256",
          "name": "forVotes",
          "type": "uint256"
        },
        {
          "internalType": "uint256",
          "name": "abstainVotes",
          "type": "uint256"
        }
      ],
      "stateMutability": "view",
      "type": "function"
    },
    {
      "inputs": [
        {
          "internalType": "address[]",
          "name": "targets",
          "type": "address[]"
        },
        {
          "internalType": "uint256[]",
          "name": "values",
          "type": "uint256[]"
        },
        {
          "internalType": "bytes[]",
          "name": "calldatas",
          "type": "bytes[]"
        },
        {
          "internalType": "string",
          "name": "description",
          "type": "string"
        }
      ],
      "name": "propose",
      "outputs": [
        {
          "internalType": "uint256",
          "name": "",
          "type": "uint256"
        }
      ],
      "stateMutability": "nonpayable",
      "type": "function"
    },
    {
      "inputs": [
        {
          "internalType": "uint256",
          "name": "blockNumber",
          "type": "uint256"
        }
      ],
      "name": "quorum",
      "outputs": [
        {
          "internalType": "uint256",
          "name": "",
          "type": "uint256"
        }
      ],
      "stateMutability": "view",
      "type": "function"
    },
    {
      "inputs": [],
      "name": "quorumDenominator",
      "outputs": [
        {
          "internalType": "uint256",
          "name": "",
          "type": "uint256"
        }
      ],
      "stateMutability": "view",
      "type": "function"
    },
    {
      "inputs": [],
      "name": "quorumNumerator",
      "outputs": [
        {
          "internalType": "uint256",
          "name": "",
          "type": "uint256"
        }
      ],
      "stateMutability": "view",
      "type": "function"
    },
    {
      "inputs": [],
      "name": "receiveEthForTransactions",
      "outputs": [],
      "stateMutability": "payable",
      "type": "function"
    },
    {
      "inputs": [
        {
          "internalType": "uint256",
          "name": "newProposalThreshold",
          "type": "uint256"
        }
      ],
      "name": "setProposalThreshold",
      "outputs": [],
      "stateMutability": "nonpayable",
      "type": "function"
    },
    {
      "inputs": [
        {
          "internalType": "uint256",
          "name": "newVotingDelay",
          "type": "uint256"
        }
      ],
      "name": "setVotingDelay",
      "outputs": [],
      "stateMutability": "nonpayable",
      "type": "function"
    },
    {
      "inputs": [
        {
          "internalType": "uint256",
          "name": "newVotingPeriod",
          "type": "uint256"
        }
      ],
      "name": "setVotingPeriod",
      "outputs": [],
      "stateMutability": "nonpayable",
      "type": "function"
    },
    {
      "inputs": [
        {
          "internalType": "uint256",
          "name": "proposalId",
          "type": "uint256"
        }
      ],
      "name": "state",
      "outputs": [
        {
          "internalType": "enum IGovernor.ProposalState",
          "name": "",
          "type": "uint8"
        }
      ],
      "stateMutability": "view",
      "type": "function"
    },
    {
      "inputs": [
        {
          "internalType": "bytes4",
          "name": "interfaceId",
          "type": "bytes4"
        }
      ],
      "name": "supportsInterface",
      "outputs": [
        {
          "internalType": "bool",
          "name": "",
          "type": "bool"
        }
      ],
      "stateMutability": "view",
      "type": "function"
    },
    {
      "inputs": [],
      "name": "token",
      "outputs": [
        {
          "internalType": "contract ERC20Votes",
          "name": "",
          "type": "address"
        }
      ],
      "stateMutability": "view",
      "type": "function"
    },
    {
      "inputs": [
        {
          "internalType": "uint256",
          "name": "newQuorumNumerator",
          "type": "uint256"
        }
      ],
      "name": "updateQuorumNumerator",
      "outputs": [],
      "stateMutability": "nonpayable",
      "type": "function"
    },
    {
      "inputs": [],
      "name": "version",
      "outputs": [
        {
          "internalType": "string",
          "name": "",
          "type": "string"
        }
      ],
      "stateMutability": "view",
      "type": "function"
    },
    {
      "inputs": [],
      "name": "votingDelay",
      "outputs": [
        {
          "internalType": "uint256",
          "name": "",
          "type": "uint256"
        }
      ],
      "stateMutability": "view",
      "type": "function"
    },
    {
      "inputs": [],
      "name": "votingPeriod",
      "outputs": [
        {
          "internalType": "uint256",
          "name": "",
          "type": "uint256"
        }
      ],
      "stateMutability": "view",
      "type": "function"
    },
    {
      "stateMutability": "payable",
      "type": "receive"
    }
  ],
  "bytecode": "0x610160604052735fbdb2315678afecb367f032d93f642f64180aa3600760006101000a81548173ffffffffffffffffffffffffffffffffffffffff021916908373ffffffffffffffffffffffffffffffffffffffff1602179055503480156200006757600080fd5b506040516200560b3803806200560b83398181016040528101906200008d9190620005bb565b60048260006201950060008580620000aa6200024360201b60201c565b60008280519060200120905060008280519060200120905060007f8b73c3c69bb8fe3d512ecc4cf759cc79239f7b179b0ffacaa9a75d522b39400f90508260e081815250508161010081815250504660a08181525050620001138184846200028060201b60201c565b608081815250503073ffffffffffffffffffffffffffffffffffffffff1660c08173ffffffffffffffffffffffffffffffffffffffff1660601b81525050806101208181525050505050505080600090805190602001906200017792919062000482565b50506200018a83620002bc60201b60201c565b6200019b826200030360201b60201c565b620001ac816200039060201b60201c565b5050508073ffffffffffffffffffffffffffffffffffffffff166101408173ffffffffffffffffffffffffffffffffffffffff1660601b8152505050620001f981620003d760201b60201c565b5081600860006101000a81548173ffffffffffffffffffffffffffffffffffffffff021916908373ffffffffffffffffffffffffffffffffffffffff160217905550505062000a1f565b60606040518060400160405280600181526020017f3100000000000000000000000000000000000000000000000000000000000000815250905090565b600083838346306040516020016200029d95949392919062000696565b6040516020818303038152906040528051906020012090509392505050565b7fc565b045403dc03c2eea82b81a0465edad9e2e7fc4d97e11421c209da93d7a9360025482604051620002f192919062000737565b60405180910390a18060028190555050565b6000811162000349576040517f08c379a0000000000000000000000000000000000000000000000000000000008152600401620003409062000715565b60405180910390fd5b7f7e3f7f0708a84de9203036abaa450dccc85ad5ff52f78c170f3edb55cf5e8828600354826040516200037e92919062000737565b60405180910390a18060038190555050565b7fccb45da8d5717e6c4544694297c4ba5cf151d455c9bb0ed4fc7a38411bc0546160045482604051620003c592919062000737565b60405180910390a18060048190555050565b620003e76200047960201b60201c565b8111156200042c576040517f08c379a00000000000000000000000000000000000000000000000000000000081526004016200042390620006f3565b60405180910390fd5b60006006549050816006819055507f0553476bf02ef2726e8ce5ced78d63e26e602e4a2257b1f559418e24b463399781836040516200046d92919062000737565b60405180910390a15050565b60006064905090565b828054620004909062000866565b90600052602060002090601f016020900481019282620004b4576000855562000500565b82601f10620004cf57805160ff191683800117855562000500565b8280016001018555821562000500579182015b82811115620004ff578251825591602001919060010190620004e2565b5b5090506200050f919062000513565b5090565b5b808211156200052e57600081600090555060010162000514565b5090565b60006200054962000543846200078d565b62000764565b9050828152602081018484840111156200056257600080fd5b6200056f84828562000830565b509392505050565b600081519050620005888162000a05565b92915050565b600082601f830112620005a057600080fd5b8151620005b284826020860162000532565b91505092915050565b60008060408385031215620005cf57600080fd5b6000620005df8582860162000577565b925050602083015167ffffffffffffffff811115620005fd57600080fd5b6200060b858286016200058e565b9150509250929050565b6200062081620007d4565b82525050565b6200063181620007e8565b82525050565b600062000646604383620007c3565b9150620006538262000941565b606082019050919050565b60006200066d602783620007c3565b91506200067a82620009b6565b604082019050919050565b620006908162000826565b82525050565b600060a082019050620006ad600083018862000626565b620006bc602083018762000626565b620006cb604083018662000626565b620006da606083018562000685565b620006e9608083018462000615565b9695505050505050565b600060208201905081810360008301526200070e8162000637565b9050919050565b6000602082019050818103600083015262000730816200065e565b9050919050565b60006040820190506200074e600083018562000685565b6200075d602083018462000685565b9392505050565b60006200077062000783565b90506200077e82826200089c565b919050565b6000604051905090565b600067ffffffffffffffff821115620007ab57620007aa62000901565b5b620007b68262000930565b9050602081019050919050565b600082825260208201905092915050565b6000620007e18262000806565b9050919050565b6000819050919050565b6000620007ff82620007d4565b9050919050565b600073ffffffffffffffffffffffffffffffffffffffff82169050919050565b6000819050919050565b60005b838110156200085057808201518184015260208101905062000833565b8381111562000860576000848401525b50505050565b600060028204905060018216806200087f57607f821691505b60208210811415620008965762000895620008d2565b5b50919050565b620008a78262000930565b810181811067ffffffffffffffff82111715620008c957620008c862000901565b5b80604052505050565b7f4e487b7100000000000000000000000000000000000000000000000000000000600052602260045260246000fd5b7f4e487b7100000000000000000000000000000000000000000000000000000000600052604160045260246000fd5b6000601f19601f8301169050919050565b7f476f7665726e6f72566f74657351756f72756d4672616374696f6e3a2071756f60008201527f72756d4e756d657261746f72206f7665722071756f72756d44656e6f6d696e6160208201527f746f720000000000000000000000000000000000000000000000000000000000604082015250565b7f476f7665726e6f7253657474696e67733a20766f74696e6720706572696f642060008201527f746f6f206c6f7700000000000000000000000000000000000000000000000000602082015250565b62000a1081620007f2565b811462000a1c57600080fd5b50565b60805160a05160c05160601c60e05161010051610120516101405160601c614b7d62000a8e6000396000818161189101528181611ff70152612101015260006122d80152600061231a015260006122f90152600061222e01526000612284015260006122ad0152614b7d6000f3fe6080604052600436106101d15760003560e01c80637b3c71d3116100f7578063dd4e2ba511610095578063eb9019d411610064578063eb9019d41461071e578063ece40cc11461075b578063f8ce560a14610784578063fc0c546a146107c157610217565b8063dd4e2ba514610695578063deaaa7cc146106c0578063e6c0f7fe146106eb578063ea0217cf146106f557610217565b8063a7713a70116100d1578063a7713a70146105c5578063b58131b0146105f0578063c01f9e371461061b578063c59057e41461065857610217565b80637b3c71d3146105205780637d5e81e21461055d57806397c3d3341461059a57610217565b80633932abb11161016f578063544ffc9c1161013e578063544ffc9c1461045057806354fd4d501461048f57806356781388146104ba57806370b0f660146104f757610217565b80633932abb11461036e5780633bccf4fd146103995780633e4f49e6146103d6578063438596321461041357610217565b806306fdde03116101ab57806306fdde03146102ad5780631089f5ed146102d85780632656227d146103015780632d63f6931461033157610217565b806301ffc9a71461021c57806302a251a31461025957806306f3f9e61461028457610217565b36610217573073ffffffffffffffffffffffffffffffffffffffff166101f56107ec565b73ffffffffffffffffffffffffffffffffffffffff161461021557600080fd5b005b600080fd5b34801561022857600080fd5b50610243600480360381019061023e9190612ffd565b6107f4565b6040516102509190613947565b60405180910390f35b34801561026557600080fd5b5061026e61086e565b60405161027b9190613d34565b60405180910390f35b34801561029057600080fd5b506102ab60048036038101906102a69190613026565b61087d565b005b3480156102b957600080fd5b506102c2610905565b6040516102cf9190613a82565b60405180910390f35b3480156102e457600080fd5b506102ff60048036038101906102fa9190613026565b610997565b005b61031b60048036038101906103169190612e66565b610bca565b6040516103289190613d34565b60405180910390f35b34801561033d57600080fd5b5061035860048036038101906103539190613026565b610d95565b6040516103659190613d34565b60405180910390f35b34801561037a57600080fd5b50610383610e03565b6040516103909190613d34565b60405180910390f35b3480156103a557600080fd5b506103c060048036038101906103bb919061315c565b610e12565b6040516103cd9190613d34565b60405180910390f35b3480156103e257600080fd5b506103fd60048036038101906103f89190613026565b610e9c565b60405161040a9190613a67565b60405180910390f35b34801561041f57600080fd5b5061043a60048036038101906104359190613078565b611079565b6040516104479190613947565b60405180910390f35b34801561045c57600080fd5b5061047760048036038101906104729190613026565b6110e4565b60405161048693929190613e28565b60405180910390f35b34801561049b57600080fd5b506104a461111c565b6040516104b19190613a82565b60405180910390f35b3480156104c657600080fd5b506104e160048036038101906104dc91906130b4565b611159565b6040516104ee9190613d34565b60405180910390f35b34801561050357600080fd5b5061051e60048036038101906105199190613026565b61118a565b005b34801561052c57600080fd5b50610547600480360381019061054291906130f0565b611212565b6040516105549190613d34565b60405180910390f35b34801561056957600080fd5b50610584600480360381019061057f9190612f11565b61127a565b6040516105919190613d34565b60405180910390f35b3480156105a657600080fd5b506105af6115a0565b6040516105bc9190613d34565b60405180910390f35b3480156105d157600080fd5b506105da6115a9565b6040516105e79190613d34565b60405180910390f35b3480156105fc57600080fd5b506106056115b3565b6040516106129190613d34565b60405180910390f35b34801561062757600080fd5b50610642600480360381019061063d9190613026565b6115c2565b60405161064f9190613d34565b60405180910390f35b34801561066457600080fd5b5061067f600480360381019061067a9190612e66565b611630565b60405161068c9190613d34565b60405180910390f35b3480156106a157600080fd5b506106aa61166c565b6040516106b79190613a82565b60405180910390f35b3480156106cc57600080fd5b506106d56116a9565b6040516106e29190613962565b60405180910390f35b6106f36116cd565b005b34801561070157600080fd5b5061071c60048036038101906107179190613026565b611759565b005b34801561072a57600080fd5b5061074560048036038101906107409190612e2a565b6117e1565b6040516107529190613d34565b60405180910390f35b34801561076757600080fd5b50610782600480360381019061077d9190613026565b6117f5565b005b34801561079057600080fd5b506107ab60048036038101906107a69190613026565b61187d565b6040516107b89190613d34565b60405180910390f35b3480156107cd57600080fd5b506107d661188f565b6040516107e39190613a4c565b60405180910390f35b600030905090565b60007fbf26d897000000000000000000000000000000000000000000000000000000007bffffffffffffffffffffffffffffffffffffffffffffffffffffffff1916827bffffffffffffffffffffffffffffffffffffffffffffffffffffffff191614806108675750610866826118b3565b5b9050919050565b600061087861191d565b905090565b6108856107ec565b73ffffffffffffffffffffffffffffffffffffffff166108a3611927565b73ffffffffffffffffffffffffffffffffffffffff16146108f9576040517f08c379a00000000000000000000000000000000000000000000000000000000081526004016108f090613af4565b60405180910390fd5b6109028161192f565b50565b60606000805461091490614388565b80601f016020809104026020016040519081016040528092919081815260200182805461094090614388565b801561098d5780601f106109625761010080835404028352916020019161098d565b820191906000526020600020905b81548152906001019060200180831161097057829003601f168201915b5050505050905090565b80600760009054906101000a900473ffffffffffffffffffffffffffffffffffffffff1673ffffffffffffffffffffffffffffffffffffffff1663dd62ed3e33306040518363ffffffff1660e01b81526004016109f5929190613864565b60206040518083038186803b158015610a0d57600080fd5b505afa158015610a21573d6000803e3d6000fd5b505050506040513d601f19601f82011682018060405250810190610a45919061304f565b1015610a86576040517f08c379a0000000000000000000000000000000000000000000000000000000008152600401610a7d90613c34565b60405180910390fd5b600760009054906101000a900473ffffffffffffffffffffffffffffffffffffffff1673ffffffffffffffffffffffffffffffffffffffff166323b872dd3330846040518463ffffffff1660e01b8152600401610ae59392919061388d565b602060405180830381600087803b158015610aff57600080fd5b505af1158015610b13573d6000803e3d6000fd5b505050506040513d601f19601f82011682018060405250810190610b379190612fd4565b50600860009054906101000a900473ffffffffffffffffffffffffffffffffffffffff1673ffffffffffffffffffffffffffffffffffffffff166340c10f1933836040518363ffffffff1660e01b8152600401610b959291906138c4565b600060405180830381600087803b158015610baf57600080fd5b505af1158015610bc3573d6000803e3d6000fd5b5050505050565b600080610bd986868686611630565b90506000610be682610e9c565b905060046007811115610c22577f4e487b7100000000000000000000000000000000000000000000000000000000600052602160045260246000fd5b816007811115610c5b577f4e487b7100000000000000000000000000000000000000000000000000000000600052602160045260246000fd5b1480610cd7575060056007811115610c9c577f4e487b7100000000000000000000000000000000000000000000000000000000600052602160045260246000fd5b816007811115610cd5577f4e487b7100000000000000000000000000000000000000000000000000000000600052602160045260246000fd5b145b610d16576040517f08c379a0000000000000000000000000000000000000000000000000000000008152600401610d0d90613cb4565b60405180910390fd5b600180600084815260200190815260200160002060020160006101000a81548160ff0219169083151502179055507f712ae1383f79ac853f8d882153778e0260ef8f03b504e2866e0593e04d2b291f82604051610d739190613d34565b60405180910390a1610d8882888888886119c4565b8192505050949350505050565b6000610df2600160008481526020019081526020016000206000016040518060200160405290816000820160009054906101000a900467ffffffffffffffff1667ffffffffffffffff1667ffffffffffffffff1681525050611b45565b67ffffffffffffffff169050919050565b6000610e0d611b53565b905090565b600080610e73610e6b7f150214d74d59b7d1e90c73fc22ef3d991dd0a76b046543d4d80ab92d2a50328f8989604051602001610e50939291906139d0565b60405160208183030381529060405280519060200120611b5d565b868686611b77565b9050610e9087828860405180602001604052806000815250611ba2565b91505095945050505050565b60008060016000848152602001908152602001600020604051806080016040529081600082016040518060200160405290816000820160009054906101000a900467ffffffffffffffff1667ffffffffffffffff1667ffffffffffffffff16815250508152602001600182016040518060200160405290816000820160009054906101000a900467ffffffffffffffff1667ffffffffffffffff1667ffffffffffffffff168152505081526020016002820160009054906101000a900460ff161515151581526020016002820160019054906101000a900460ff1615151515815250509050806040015115610f95576007915050611074565b806060015115610fa9576002915050611074565b43610fb78260000151611b45565b67ffffffffffffffff1610610fd0576000915050611074565b43610fde8260200151611b45565b67ffffffffffffffff1610610ff7576001915050611074565b6110048160200151611d42565b156110395761101283611d6e565b8015611023575061102283611db5565b5b61102e576003611031565b60045b915050611074565b6040517f08c379a000000000000000000000000000000000000000000000000000000000815260040161106b90613cd4565b60405180910390fd5b919050565b60006005600084815260200190815260200160002060030160008373ffffffffffffffffffffffffffffffffffffffff1673ffffffffffffffffffffffffffffffffffffffff16815260200190815260200160002060009054906101000a900460ff16905092915050565b600080600080600560008681526020019081526020016000209050806000015481600101548260020154935093509350509193909250565b60606040518060400160405280600181526020017f3100000000000000000000000000000000000000000000000000000000000000815250905090565b600080611164611927565b905061118184828560405180602001604052806000815250611ba2565b91505092915050565b6111926107ec565b73ffffffffffffffffffffffffffffffffffffffff166111b0611927565b73ffffffffffffffffffffffffffffffffffffffff1614611206576040517f08c379a00000000000000000000000000000000000000000000000000000000081526004016111fd90613af4565b60405180910390fd5b61120f81611de0565b50565b60008061121d611927565b905061126f86828787878080601f016020809104026020016040519081016040528093929190818152602001838380828437600081840152601f19601f82011690508083019250505050505050611ba2565b915050949350505050565b60006112846115b3565b61129a336001436112959190614218565b6117e1565b10156112db576040517f08c379a00000000000000000000000000000000000000000000000000000000081526004016112d290613b34565b60405180910390fd5b60006112f08686868680519060200120611630565b90508451865114611336576040517f08c379a000000000000000000000000000000000000000000000000000000000815260040161132d90613b74565b60405180910390fd5b835186511461137a576040517f08c379a000000000000000000000000000000000000000000000000000000000815260040161137190613b74565b60405180910390fd5b60008651116113be576040517f08c379a00000000000000000000000000000000000000000000000000000000081526004016113b590613c54565b60405180910390fd5b600060016000838152602001908152602001600020905061141e816000016040518060200160405290816000820160009054906101000a900467ffffffffffffffff1667ffffffffffffffff1667ffffffffffffffff1681525050611e25565b61145d576040517f08c379a000000000000000000000000000000000000000000000000000000000815260040161145490613d14565b60405180910390fd5b600061146f61146a610e03565b611e3f565b61147843611e3f565b611482919061414f565b9050600061149661149161086e565b611e3f565b826114a1919061414f565b90506114b98284600001611e9690919063ffffffff16565b6114cf8184600101611e9690919063ffffffff16565b7f7d84a6263ae0d98d3329bd7b46bb4e8d6f98cd35a7adb45c274c8b7fd5ebd5e0846114f9611927565b8b8b8d5167ffffffffffffffff81111561153c577f4e487b7100000000000000000000000000000000000000000000000000000000600052604160045260246000fd5b60405190808252806020026020018201604052801561156f57816020015b606081526020019060019003908161155a5790505b508c88888e60405161158999989796959493929190613d4f565b60405180910390a183945050505050949350505050565b60006064905090565b6000600654905090565b60006115bd611ec5565b905090565b600061161f600160008481526020019081526020016000206001016040518060200160405290816000820160009054906101000a900467ffffffffffffffff1667ffffffffffffffff1667ffffffffffffffff1681525050611b45565b67ffffffffffffffff169050919050565b60008484848460405160200161164994939291906138ed565b6040516020818303038152906040528051906020012060001c9050949350505050565b60606040518060400160405280602081526020017f737570706f72743d627261766f2671756f72756d3d666f722c6162737461696e815250905090565b7f150214d74d59b7d1e90c73fc22ef3d991dd0a76b046543d4d80ab92d2a50328f81565b670de0b6b3a7640000341015611718576040517f08c379a000000000000000000000000000000000000000000000000000000000815260040161170f90613bf4565b60405180910390fd5b6117576040518060400160405280600d81526020017f5265636569766564203d3d3e200000000000000000000000000000000000000081525034611ecf565b565b6117616107ec565b73ffffffffffffffffffffffffffffffffffffffff1661177f611927565b73ffffffffffffffffffffffffffffffffffffffff16146117d5576040517f08c379a00000000000000000000000000000000000000000000000000000000081526004016117cc90613af4565b60405180910390fd5b6117de81611f6b565b50565b60006117ed8383611ff3565b905092915050565b6117fd6107ec565b73ffffffffffffffffffffffffffffffffffffffff1661181b611927565b73ffffffffffffffffffffffffffffffffffffffff1614611871576040517f08c379a000000000000000000000000000000000000000000000000000000000815260040161186890613af4565b60405180910390fd5b61187a816120a8565b50565b6000611888826120ed565b9050919050565b7f000000000000000000000000000000000000000000000000000000000000000081565b60007f01ffc9a7000000000000000000000000000000000000000000000000000000007bffffffffffffffffffffffffffffffffffffffffffffffffffffffff1916827bffffffffffffffffffffffffffffffffffffffffffffffffffffffff1916149050919050565b6000600354905090565b600033905090565b6119376115a0565b811115611979576040517f08c379a000000000000000000000000000000000000000000000000000000000815260040161197090613b14565b60405180910390fd5b60006006549050816006819055507f0553476bf02ef2726e8ce5ced78d63e26e602e4a2257b1f559418e24b463399781836040516119b8929190613dff565b60405180910390a15050565b6000604051806060016040528060278152602001614b2160279139905060005b8551811015611b3c57600080878381518110611a29577f4e487b7100000000000000000000000000000000000000000000000000000000600052603260045260246000fd5b602002602001015173ffffffffffffffffffffffffffffffffffffffff16878481518110611a80577f4e487b7100000000000000000000000000000000000000000000000000000000600052603260045260246000fd5b6020026020010151878581518110611ac1577f4e487b7100000000000000000000000000000000000000000000000000000000600052603260045260246000fd5b6020026020010151604051611ad69190613816565b60006040518083038185875af1925050503d8060008114611b13576040519150601f19603f3d011682016040523d82523d6000602084013e611b18565b606091505b5091509150611b288282866121c3565b50505080611b35906143eb565b90506119e4565b50505050505050565b600081600001519050919050565b6000600254905090565b6000611b70611b6a61222a565b83612344565b9050919050565b6000806000611b8887878787612377565b91509150611b9581612484565b8192505050949350505050565b60008060016000878152602001908152602001600020905060016007811115611bf4577f4e487b7100000000000000000000000000000000000000000000000000000000600052602160045260246000fd5b611bfd87610e9c565b6007811115611c35577f4e487b7100000000000000000000000000000000000000000000000000000000600052602160045260246000fd5b14611c75576040517f08c379a0000000000000000000000000000000000000000000000000000000008152600401611c6c90613c14565b60405180910390fd5b6000611cd386611cc4846000016040518060200160405290816000820160009054906101000a900467ffffffffffffffff1667ffffffffffffffff1667ffffffffffffffff1681525050611b45565b67ffffffffffffffff166117e1565b9050611ce1878787846127d5565b8573ffffffffffffffffffffffffffffffffffffffff167fb8e138887d0aa13bab447e82de9d5c1777041ecd21ca36ba824ff1e6c07ddda488878488604051611d2d9493929190613e5f565b60405180910390a28092505050949350505050565b6000611d4d82612a4d565b8015611d67575043826000015167ffffffffffffffff1611155b9050919050565b60008060056000848152602001908152602001600020905080600201548160010154611d9a91906140f9565b611dab611da685610d95565b61187d565b1115915050919050565b6000806005600084815260200190815260200160002090508060000154816001015411915050919050565b7fc565b045403dc03c2eea82b81a0465edad9e2e7fc4d97e11421c209da93d7a9360025482604051611e13929190613dff565b60405180910390a18060028190555050565b600080826000015167ffffffffffffffff16149050919050565b600067ffffffffffffffff8016821115611e8e576040517f08c379a0000000000000000000000000000000000000000000000000000000008152600401611e8590613c94565b60405180910390fd5b819050919050565b808260000160006101000a81548167ffffffffffffffff021916908367ffffffffffffffff1602179055505050565b6000600454905090565b611f678282604051602401611ee5929190613aa4565b6040516020818303038152906040527f9710a9d0000000000000000000000000000000000000000000000000000000007bffffffffffffffffffffffffffffffffffffffffffffffffffffffff19166020820180517bffffffffffffffffffffffffffffffffffffffffffffffffffffffff8381831617835250505050612a67565b5050565b60008111611fae576040517f08c379a0000000000000000000000000000000000000000000000000000000008152600401611fa590613b94565b60405180910390fd5b7f7e3f7f0708a84de9203036abaa450dccc85ad5ff52f78c170f3edb55cf5e882860035482604051611fe1929190613dff565b60405180910390a18060038190555050565b60007f000000000000000000000000000000000000000000000000000000000000000073ffffffffffffffffffffffffffffffffffffffff16633a46b1a884846040518363ffffffff1660e01b81526004016120509291906138c4565b60206040518083038186803b15801561206857600080fd5b505afa15801561207c573d6000803e3d6000fd5b505050506040513d601f19601f820116820180604052508101906120a0919061304f565b905092915050565b7fccb45da8d5717e6c4544694297c4ba5cf151d455c9bb0ed4fc7a38411bc05461600454826040516120db929190613dff565b60405180910390a18060048190555050565b60006120f76115a0565b6120ff6115a9565b7f000000000000000000000000000000000000000000000000000000000000000073ffffffffffffffffffffffffffffffffffffffff16638e539e8c856040518263ffffffff1660e01b81526004016121589190613d34565b60206040518083038186803b15801561217057600080fd5b505afa158015612184573d6000803e3d6000fd5b505050506040513d601f19601f820116820180604052508101906121a8919061304f565b6121b291906141be565b6121bc919061418d565b9050919050565b606083156121d357829050612223565b6000835111156121e65782518084602001fd5b816040517f08c379a000000000000000000000000000000000000000000000000000000000815260040161221a9190613a82565b60405180910390fd5b9392505050565b60007f000000000000000000000000000000000000000000000000000000000000000073ffffffffffffffffffffffffffffffffffffffff163073ffffffffffffffffffffffffffffffffffffffff161480156122a657507f000000000000000000000000000000000000000000000000000000000000000046145b156122d3577f00000000000000000000000000000000000000000000000000000000000000009050612341565b61233e7f00000000000000000000000000000000000000000000000000000000000000007f00000000000000000000000000000000000000000000000000000000000000007f0000000000000000000000000000000000000000000000000000000000000000612a90565b90505b90565b6000828260405160200161235992919061382d565b60405160208183030381529060405280519060200120905092915050565b6000807f7fffffffffffffffffffffffffffffff5d576e7357a4501ddfe92f46681b20a08360001c11156123b257600060039150915061247b565b601b8560ff16141580156123ca5750601c8560ff1614155b156123dc57600060049150915061247b565b6000600187878787604051600081526020016040526040516124019493929190613a07565b6020604051602081039080840390855afa158015612423573d6000803e3d6000fd5b505050602060405103519050600073ffffffffffffffffffffffffffffffffffffffff168173ffffffffffffffffffffffffffffffffffffffff1614156124725760006001925092505061247b565b80600092509250505b94509492505050565b600060048111156124be577f4e487b7100000000000000000000000000000000000000000000000000000000600052602160045260246000fd5b8160048111156124f7577f4e487b7100000000000000000000000000000000000000000000000000000000600052602160045260246000fd5b1415612502576127d2565b6001600481111561253c577f4e487b7100000000000000000000000000000000000000000000000000000000600052602160045260246000fd5b816004811115612575577f4e487b7100000000000000000000000000000000000000000000000000000000600052602160045260246000fd5b14156125b6576040517f08c379a00000000000000000000000000000000000000000000000000000000081526004016125ad90613ad4565b60405180910390fd5b600260048111156125f0577f4e487b7100000000000000000000000000000000000000000000000000000000600052602160045260246000fd5b816004811115612629577f4e487b7100000000000000000000000000000000000000000000000000000000600052602160045260246000fd5b141561266a576040517f08c379a000000000000000000000000000000000000000000000000000000000815260040161266190613b54565b60405180910390fd5b600360048111156126a4577f4e487b7100000000000000000000000000000000000000000000000000000000600052602160045260246000fd5b8160048111156126dd577f4e487b7100000000000000000000000000000000000000000000000000000000600052602160045260246000fd5b141561271e576040517f08c379a000000000000000000000000000000000000000000000000000000000815260040161271590613bb4565b60405180910390fd5b600480811115612757577f4e487b7100000000000000000000000000000000000000000000000000000000600052602160045260246000fd5b816004811115612790577f4e487b7100000000000000000000000000000000000000000000000000000000600052602160045260246000fd5b14156127d1576040517f08c379a00000000000000000000000000000000000000000000000000000000081526004016127c890613c74565b60405180910390fd5b5b50565b60006005600086815260200190815260200160002090508060030160008573ffffffffffffffffffffffffffffffffffffffff1673ffffffffffffffffffffffffffffffffffffffff16815260200190815260200160002060009054906101000a900460ff161561287b576040517f08c379a000000000000000000000000000000000000000000000000000000000815260040161287290613bd4565b60405180910390fd5b60018160030160008673ffffffffffffffffffffffffffffffffffffffff1673ffffffffffffffffffffffffffffffffffffffff16815260200190815260200160002060006101000a81548160ff0219169083151502179055506000600281111561290f577f4e487b7100000000000000000000000000000000000000000000000000000000600052602160045260246000fd5b60ff168360ff16141561293c578181600001600082825461293091906140f9565b92505081905550612a46565b60016002811115612976577f4e487b7100000000000000000000000000000000000000000000000000000000600052602160045260246000fd5b60ff168360ff1614156129a3578181600101600082825461299791906140f9565b92505081905550612a45565b6002808111156129dc577f4e487b7100000000000000000000000000000000000000000000000000000000600052602160045260246000fd5b60ff168360ff161415612a0957818160020160008282546129fd91906140f9565b92505081905550612a44565b6040517f08c379a0000000000000000000000000000000000000000000000000000000008152600401612a3b90613cf4565b60405180910390fd5b5b5b5050505050565b600080826000015167ffffffffffffffff16119050919050565b60008151905060006a636f6e736f6c652e6c6f679050602083016000808483855afa5050505050565b60008383834630604051602001612aab95949392919061397d565b6040516020818303038152906040528051906020012090509392505050565b6000612add612ad884613ed0565b613eab565b90508083825260208201905082856020860282011115612afc57600080fd5b60005b85811015612b2c5781612b128882612c7b565b845260208401935060208301925050600181019050612aff565b5050509392505050565b6000612b49612b4484613efc565b613eab565b9050808382526020820190508260005b85811015612b895781358501612b6f8882612d4d565b845260208401935060208301925050600181019050612b59565b5050509392505050565b6000612ba6612ba184613f28565b613eab565b90508083825260208201905082856020860282011115612bc557600080fd5b60005b85811015612bf55781612bdb8882612deb565b845260208401935060208301925050600181019050612bc8565b5050509392505050565b6000612c12612c0d84613f54565b613eab565b905082815260208101848484011115612c2a57600080fd5b612c35848285614346565b509392505050565b6000612c50612c4b84613f85565b613eab565b905082815260208101848484011115612c6857600080fd5b612c73848285614346565b509392505050565b600081359050612c8a81614a96565b92915050565b600082601f830112612ca157600080fd5b8135612cb1848260208601612aca565b91505092915050565b600082601f830112612ccb57600080fd5b8135612cdb848260208601612b36565b91505092915050565b600082601f830112612cf557600080fd5b8135612d05848260208601612b93565b91505092915050565b600081519050612d1d81614aad565b92915050565b600081359050612d3281614ac4565b92915050565b600081359050612d4781614adb565b92915050565b600082601f830112612d5e57600080fd5b8135612d6e848260208601612bff565b91505092915050565b60008083601f840112612d8957600080fd5b8235905067ffffffffffffffff811115612da257600080fd5b602083019150836001820283011115612dba57600080fd5b9250929050565b600082601f830112612dd257600080fd5b8135612de2848260208601612c3d565b91505092915050565b600081359050612dfa81614af2565b92915050565b600081519050612e0f81614af2565b92915050565b600081359050612e2481614b09565b92915050565b60008060408385031215612e3d57600080fd5b6000612e4b85828601612c7b565b9250506020612e5c85828601612deb565b9150509250929050565b60008060008060808587031215612e7c57600080fd5b600085013567ffffffffffffffff811115612e9657600080fd5b612ea287828801612c90565b945050602085013567ffffffffffffffff811115612ebf57600080fd5b612ecb87828801612ce4565b935050604085013567ffffffffffffffff811115612ee857600080fd5b612ef487828801612cba565b9250506060612f0587828801612d23565b91505092959194509250565b60008060008060808587031215612f2757600080fd5b600085013567ffffffffffffffff811115612f4157600080fd5b612f4d87828801612c90565b945050602085013567ffffffffffffffff811115612f6a57600080fd5b612f7687828801612ce4565b935050604085013567ffffffffffffffff811115612f9357600080fd5b612f9f87828801612cba565b925050606085013567ffffffffffffffff811115612fbc57600080fd5b612fc887828801612dc1565b91505092959194509250565b600060208284031215612fe657600080fd5b6000612ff484828501612d0e565b91505092915050565b60006020828403121561300f57600080fd5b600061301d84828501612d38565b91505092915050565b60006020828403121561303857600080fd5b600061304684828501612deb565b91505092915050565b60006020828403121561306157600080fd5b600061306f84828501612e00565b91505092915050565b6000806040838503121561308b57600080fd5b600061309985828601612deb565b92505060206130aa85828601612c7b565b9150509250929050565b600080604083850312156130c757600080fd5b60006130d585828601612deb565b92505060206130e685828601612e15565b9150509250929050565b6000806000806060858703121561310657600080fd5b600061311487828801612deb565b945050602061312587828801612e15565b935050604085013567ffffffffffffffff81111561314257600080fd5b61314e87828801612d77565b925092505092959194509250565b600080600080600060a0868803121561317457600080fd5b600061318288828901612deb565b955050602061319388828901612e15565b94505060406131a488828901612e15565b93505060606131b588828901612d23565b92505060806131c688828901612d23565b9150509295509295909350565b60006131df838361322b565b60208301905092915050565b60006131f78383613424565b905092915050565b600061320b83836134ac565b905092915050565b600061321f83836137da565b60208301905092915050565b6132348161424c565b82525050565b6132438161424c565b82525050565b600061325482613ff6565b61325e818561406c565b935061326983613fb6565b8060005b8381101561329a57815161328188826131d3565b975061328c83614038565b92505060018101905061326d565b5085935050505092915050565b60006132b282614001565b6132bc818561407d565b9350836020820285016132ce85613fc6565b8060005b8581101561330a57848403895281516132eb85826131eb565b94506132f683614045565b925060208a019950506001810190506132d2565b50829750879550505050505092915050565b60006133278261400c565b613331818561408e565b93508360208202850161334385613fd6565b8060005b8581101561337f578484038952815161336085826131ff565b945061336b83614052565b925060208a01995050600181019050613347565b50829750879550505050505092915050565b600061339c82614017565b6133a6818561409f565b93506133b183613fe6565b8060005b838110156133e25781516133c98882613213565b97506133d48361405f565b9250506001810190506133b5565b5085935050505092915050565b6133f88161425e565b82525050565b6134078161426a565b82525050565b61341e6134198261426a565b614434565b82525050565b600061342f82614022565b61343981856140b0565b9350613449818560208601614355565b61345281614529565b840191505092915050565b600061346882614022565b61347281856140c1565b9350613482818560208601614355565b80840191505092915050565b613497816142fe565b82525050565b6134a681614322565b82525050565b60006134b78261402d565b6134c181856140cc565b93506134d1818560208601614355565b6134da81614529565b840191505092915050565b60006134f08261402d565b6134fa81856140dd565b935061350a818560208601614355565b61351381614529565b840191505092915050565b600061352b6018836140dd565b91506135368261453a565b602082019050919050565b600061354e6018836140dd565b915061355982614563565b602082019050919050565b60006135716043836140dd565b915061357c8261458c565b606082019050919050565b60006135946043836140dd565b915061359f82614601565b606082019050919050565b60006135b7601f836140dd565b91506135c282614676565b602082019050919050565b60006135da6002836140ee565b91506135e58261469f565b600282019050919050565b60006135fd6021836140dd565b9150613608826146c8565b604082019050919050565b60006136206027836140dd565b915061362b82614717565b604082019050919050565b60006136436022836140dd565b915061364e82614766565b604082019050919050565b60006136666027836140dd565b9150613671826147b5565b604082019050919050565b60006136896018836140dd565b915061369482614804565b602082019050919050565b60006136ac6023836140dd565b91506136b78261482d565b604082019050919050565b60006136cf6015836140dd565b91506136da8261487c565b602082019050919050565b60006136f26018836140dd565b91506136fd826148a5565b602082019050919050565b60006137156022836140dd565b9150613720826148ce565b604082019050919050565b60006137386026836140dd565b91506137438261491d565b604082019050919050565b600061375b6021836140dd565b91506137668261496c565b604082019050919050565b600061377e601d836140dd565b9150613789826149bb565b602082019050919050565b60006137a16035836140dd565b91506137ac826149e4565b604082019050919050565b60006137c46021836140dd565b91506137cf82614a33565b604082019050919050565b6137e3816142d3565b82525050565b6137f2816142d3565b82525050565b61380181614334565b82525050565b613810816142f1565b82525050565b6000613822828461345d565b915081905092915050565b6000613838826135cd565b9150613844828561340d565b602082019150613854828461340d565b6020820191508190509392505050565b6000604082019050613879600083018561323a565b613886602083018461323a565b9392505050565b60006060820190506138a2600083018661323a565b6138af602083018561323a565b6138bc60408301846137e9565b949350505050565b60006040820190506138d9600083018561323a565b6138e660208301846137e9565b9392505050565b600060808201905081810360008301526139078187613249565b9050818103602083015261391b8186613391565b9050818103604083015261392f81856132a7565b905061393e60608301846133fe565b95945050505050565b600060208201905061395c60008301846133ef565b92915050565b600060208201905061397760008301846133fe565b92915050565b600060a08201905061399260008301886133fe565b61399f60208301876133fe565b6139ac60408301866133fe565b6139b960608301856137e9565b6139c6608083018461323a565b9695505050505050565b60006060820190506139e560008301866133fe565b6139f260208301856137e9565b6139ff6040830184613807565b949350505050565b6000608082019050613a1c60008301876133fe565b613a296020830186613807565b613a3660408301856133fe565b613a4360608301846133fe565b95945050505050565b6000602082019050613a61600083018461348e565b92915050565b6000602082019050613a7c600083018461349d565b92915050565b60006020820190508181036000830152613a9c81846134e5565b905092915050565b60006040820190508181036000830152613abe81856134e5565b9050613acd60208301846137e9565b9392505050565b60006020820190508181036000830152613aed8161351e565b9050919050565b60006020820190508181036000830152613b0d81613541565b9050919050565b60006020820190508181036000830152613b2d81613564565b9050919050565b60006020820190508181036000830152613b4d81613587565b9050919050565b60006020820190508181036000830152613b6d816135aa565b9050919050565b60006020820190508181036000830152613b8d816135f0565b9050919050565b60006020820190508181036000830152613bad81613613565b9050919050565b60006020820190508181036000830152613bcd81613636565b9050919050565b60006020820190508181036000830152613bed81613659565b9050919050565b60006020820190508181036000830152613c0d8161367c565b9050919050565b60006020820190508181036000830152613c2d8161369f565b9050919050565b60006020820190508181036000830152613c4d816136c2565b9050919050565b60006020820190508181036000830152613c6d816136e5565b9050919050565b60006020820190508181036000830152613c8d81613708565b9050919050565b60006020820190508181036000830152613cad8161372b565b9050919050565b60006020820190508181036000830152613ccd8161374e565b9050919050565b60006020820190508181036000830152613ced81613771565b9050919050565b60006020820190508181036000830152613d0d81613794565b9050919050565b60006020820190508181036000830152613d2d816137b7565b9050919050565b6000602082019050613d4960008301846137e9565b92915050565b600061012082019050613d65600083018c6137e9565b613d72602083018b61323a565b8181036040830152613d84818a613249565b90508181036060830152613d988189613391565b90508181036080830152613dac818861331c565b905081810360a0830152613dc081876132a7565b9050613dcf60c08301866137f8565b613ddc60e08301856137f8565b818103610100830152613def81846134e5565b90509a9950505050505050505050565b6000604082019050613e1460008301856137e9565b613e2160208301846137e9565b9392505050565b6000606082019050613e3d60008301866137e9565b613e4a60208301856137e9565b613e5760408301846137e9565b949350505050565b6000608082019050613e7460008301876137e9565b613e816020830186613807565b613e8e60408301856137e9565b8181036060830152613ea081846134e5565b905095945050505050565b6000613eb5613ec6565b9050613ec182826143ba565b919050565b6000604051905090565b600067ffffffffffffffff821115613eeb57613eea6144fa565b5b602082029050602081019050919050565b600067ffffffffffffffff821115613f1757613f166144fa565b5b602082029050602081019050919050565b600067ffffffffffffffff821115613f4357613f426144fa565b5b602082029050602081019050919050565b600067ffffffffffffffff821115613f6f57613f6e6144fa565b5b613f7882614529565b9050602081019050919050565b600067ffffffffffffffff821115613fa057613f9f6144fa565b5b613fa982614529565b9050602081019050919050565b6000819050602082019050919050565b6000819050602082019050919050565b6000819050602082019050919050565b6000819050602082019050919050565b600081519050919050565b600081519050919050565b600081519050919050565b600081519050919050565b600081519050919050565b600081519050919050565b6000602082019050919050565b6000602082019050919050565b6000602082019050919050565b6000602082019050919050565b600082825260208201905092915050565b600082825260208201905092915050565b600082825260208201905092915050565b600082825260208201905092915050565b600082825260208201905092915050565b600081905092915050565b600082825260208201905092915050565b600082825260208201905092915050565b600081905092915050565b6000614104826142d3565b915061410f836142d3565b9250827fffffffffffffffffffffffffffffffffffffffffffffffffffffffffffffffff038211156141445761414361443e565b5b828201905092915050565b600061415a826142dd565b9150614165836142dd565b92508267ffffffffffffffff038211156141825761418161443e565b5b828201905092915050565b6000614198826142d3565b91506141a3836142d3565b9250826141b3576141b261446d565b5b828204905092915050565b60006141c9826142d3565b91506141d4836142d3565b9250817fffffffffffffffffffffffffffffffffffffffffffffffffffffffffffffffff048311821515161561420d5761420c61443e565b5b828202905092915050565b6000614223826142d3565b915061422e836142d3565b9250828210156142415761424061443e565b5b828203905092915050565b6000614257826142b3565b9050919050565b60008115159050919050565b6000819050919050565b60007fffffffff0000000000000000000000000000000000000000000000000000000082169050919050565b60008190506142ae82614a82565b919050565b600073ffffffffffffffffffffffffffffffffffffffff82169050919050565b6000819050919050565b600067ffffffffffffffff82169050919050565b600060ff82169050919050565b600061430982614310565b9050919050565b600061431b826142b3565b9050919050565b600061432d826142a0565b9050919050565b600061433f826142dd565b9050919050565b82818337600083830152505050565b60005b83811015614373578082015181840152602081019050614358565b83811115614382576000848401525b50505050565b600060028204905060018216806143a057607f821691505b602082108114156143b4576143b36144cb565b5b50919050565b6143c382614529565b810181811067ffffffffffffffff821117156143e2576143e16144fa565b5b80604052505050565b60006143f6826142d3565b91507fffffffffffffffffffffffffffffffffffffffffffffffffffffffffffffffff8214156144295761442861443e565b5b600182019050919050565b6000819050919050565b7f4e487b7100000000000000000000000000000000000000000000000000000000600052601160045260246000fd5b7f4e487b7100000000000000000000000000000000000000000000000000000000600052601260045260246000fd5b7f4e487b7100000000000000000000000000000000000000000000000000000000600052602160045260246000fd5b7f4e487b7100000000000000000000000000000000000000000000000000000000600052602260045260246000fd5b7f4e487b7100000000000000000000000000000000000000000000000000000000600052604160045260246000fd5b6000601f19601f8301169050919050565b7f45434453413a20696e76616c6964207369676e61747572650000000000000000600082015250565b7f476f7665726e6f723a206f6e6c79476f7665726e616e63650000000000000000600082015250565b7f476f7665726e6f72566f74657351756f72756d4672616374696f6e3a2071756f60008201527f72756d4e756d657261746f72206f7665722071756f72756d44656e6f6d696e6160208201527f746f720000000000000000000000000000000000000000000000000000000000604082015250565b7f476f7665726e6f72436f6d7061746962696c697479427261766f3a2070726f7060008201527f6f73657220766f7465732062656c6f772070726f706f73616c2074687265736860208201527f6f6c640000000000000000000000000000000000000000000000000000000000604082015250565b7f45434453413a20696e76616c6964207369676e6174757265206c656e67746800600082015250565b7f1901000000000000000000000000000000000000000000000000000000000000600082015250565b7f476f7665726e6f723a20696e76616c69642070726f706f73616c206c656e677460008201527f6800000000000000000000000000000000000000000000000000000000000000602082015250565b7f476f7665726e6f7253657474696e67733a20766f74696e6720706572696f642060008201527f746f6f206c6f7700000000000000000000000000000000000000000000000000602082015250565b7f45434453413a20696e76616c6964207369676e6174757265202773272076616c60008201527f7565000000000000000000000000000000000000000000000000000000000000602082015250565b7f476f7665726e6f72566f74696e6753696d706c653a20766f746520616c72656160008201527f6479206361737400000000000000000000000000000000000000000000000000602082015250565b7f4d696e696d756d20312065746865722072657175697265640000000000000000600082015250565b7f476f7665726e6f723a20766f7465206e6f742063757272656e746c792061637460008201527f6976650000000000000000000000000000000000000000000000000000000000602082015250565b7f44414920616c6c6f77616e6365206e6f74207365740000000000000000000000600082015250565b7f476f7665726e6f723a20656d7074792070726f706f73616c0000000000000000600082015250565b7f45434453413a20696e76616c6964207369676e6174757265202776272076616c60008201527f7565000000000000000000000000000000000000000000000000000000000000602082015250565b7f53616665436173743a2076616c756520646f65736e27742066697420696e203660008201527f3420626974730000000000000000000000000000000000000000000000000000602082015250565b7f476f7665726e6f723a2070726f706f73616c206e6f742073756363657373667560008201527f6c00000000000000000000000000000000000000000000000000000000000000602082015250565b7f476f7665726e6f723a20756e6b6e6f776e2070726f706f73616c206964000000600082015250565b7f476f7665726e6f72566f74696e6753696d706c653a20696e76616c696420766160008201527f6c756520666f7220656e756d20566f7465547970650000000000000000000000602082015250565b7f476f7665726e6f723a2070726f706f73616c20616c726561647920657869737460008201527f7300000000000000000000000000000000000000000000000000000000000000602082015250565b60088110614a9357614a9261449c565b5b50565b614a9f8161424c565b8114614aaa57600080fd5b50565b614ab68161425e565b8114614ac157600080fd5b50565b614acd8161426a565b8114614ad857600080fd5b50565b614ae481614274565b8114614aef57600080fd5b50565b614afb816142d3565b8114614b0657600080fd5b50565b614b12816142f1565b8114614b1d57600080fd5b5056fe476f7665726e6f723a2063616c6c20726576657274656420776974686f7574206d657373616765a264697066735822122067bd3452b593915ac20ae08e5dff0bfce849e7a68bb41c6589beae9bda59ae8a64736f6c63430008020033",
  "linkReferences": {},
  "deployedLinkReferences": {}
}